{
  "_format": "hh-sol-artifact-1",
  "contractName": "MyEpicNFT",
  "sourceName": "contracts/MyEpicNFT.sol",
  "abi": [
    {
      "inputs": [],
      "stateMutability": "nonpayable",
      "type": "constructor"
    },
    {
      "anonymous": false,
      "inputs": [
        {
          "indexed": true,
          "internalType": "address",
          "name": "owner",
          "type": "address"
        },
        {
          "indexed": true,
          "internalType": "address",
          "name": "approved",
          "type": "address"
        },
        {
          "indexed": true,
          "internalType": "uint256",
          "name": "tokenId",
          "type": "uint256"
        }
      ],
      "name": "Approval",
      "type": "event"
    },
    {
      "anonymous": false,
      "inputs": [
        {
          "indexed": true,
          "internalType": "address",
          "name": "owner",
          "type": "address"
        },
        {
          "indexed": true,
          "internalType": "address",
          "name": "operator",
          "type": "address"
        },
        {
          "indexed": false,
          "internalType": "bool",
          "name": "approved",
          "type": "bool"
        }
      ],
      "name": "ApprovalForAll",
      "type": "event"
    },
    {
      "anonymous": false,
      "inputs": [
        {
          "indexed": false,
          "internalType": "address",
          "name": "sender",
          "type": "address"
        },
        {
          "indexed": false,
          "internalType": "uint256",
          "name": "tokenId",
          "type": "uint256"
        }
      ],
      "name": "NewEpicNFTMinted",
      "type": "event"
    },
    {
      "anonymous": false,
      "inputs": [
        {
          "indexed": true,
          "internalType": "address",
          "name": "from",
          "type": "address"
        },
        {
          "indexed": true,
          "internalType": "address",
          "name": "to",
          "type": "address"
        },
        {
          "indexed": true,
          "internalType": "uint256",
          "name": "tokenId",
          "type": "uint256"
        }
      ],
      "name": "Transfer",
      "type": "event"
    },
    {
      "inputs": [
        {
          "internalType": "address",
          "name": "to",
          "type": "address"
        },
        {
          "internalType": "uint256",
          "name": "tokenId",
          "type": "uint256"
        }
      ],
      "name": "approve",
      "outputs": [],
      "stateMutability": "nonpayable",
      "type": "function"
    },
    {
      "inputs": [
        {
          "internalType": "address",
          "name": "owner",
          "type": "address"
        }
      ],
      "name": "balanceOf",
      "outputs": [
        {
          "internalType": "uint256",
          "name": "",
          "type": "uint256"
        }
      ],
      "stateMutability": "view",
      "type": "function"
    },
    {
      "inputs": [],
      "name": "fetchCurrentMintNum",
      "outputs": [
        {
          "internalType": "uint256",
          "name": "",
          "type": "uint256"
        }
      ],
      "stateMutability": "view",
      "type": "function"
    },
    {
      "inputs": [
        {
          "internalType": "uint256",
          "name": "tokenId",
          "type": "uint256"
        }
      ],
      "name": "getApproved",
      "outputs": [
        {
          "internalType": "address",
          "name": "",
          "type": "address"
        }
      ],
      "stateMutability": "view",
      "type": "function"
    },
    {
      "inputs": [
        {
          "internalType": "address",
          "name": "owner",
          "type": "address"
        },
        {
          "internalType": "address",
          "name": "operator",
          "type": "address"
        }
      ],
      "name": "isApprovedForAll",
      "outputs": [
        {
          "internalType": "bool",
          "name": "",
          "type": "bool"
        }
      ],
      "stateMutability": "view",
      "type": "function"
    },
    {
      "inputs": [],
      "name": "makeAnEpicNFT",
      "outputs": [],
      "stateMutability": "nonpayable",
      "type": "function"
    },
    {
      "inputs": [],
      "name": "name",
      "outputs": [
        {
          "internalType": "string",
          "name": "",
          "type": "string"
        }
      ],
      "stateMutability": "view",
      "type": "function"
    },
    {
      "inputs": [
        {
          "internalType": "uint256",
          "name": "tokenId",
          "type": "uint256"
        }
      ],
      "name": "ownerOf",
      "outputs": [
        {
          "internalType": "address",
          "name": "",
          "type": "address"
        }
      ],
      "stateMutability": "view",
      "type": "function"
    },
    {
      "inputs": [
        {
          "internalType": "uint256",
          "name": "tokenId",
          "type": "uint256"
        }
      ],
      "name": "pickRandomFirstWord",
      "outputs": [
        {
          "internalType": "string",
          "name": "",
          "type": "string"
        }
      ],
      "stateMutability": "view",
      "type": "function"
    },
    {
      "inputs": [
        {
          "internalType": "uint256",
          "name": "tokenId",
          "type": "uint256"
        }
      ],
      "name": "pickRandomSecondWord",
      "outputs": [
        {
          "internalType": "string",
          "name": "",
          "type": "string"
        }
      ],
      "stateMutability": "view",
      "type": "function"
    },
    {
      "inputs": [
        {
          "internalType": "uint256",
          "name": "tokenId",
          "type": "uint256"
        }
      ],
      "name": "pickRandomThirdWord",
      "outputs": [
        {
          "internalType": "string",
          "name": "",
          "type": "string"
        }
      ],
      "stateMutability": "view",
      "type": "function"
    },
    {
      "inputs": [
        {
          "internalType": "address",
          "name": "from",
          "type": "address"
        },
        {
          "internalType": "address",
          "name": "to",
          "type": "address"
        },
        {
          "internalType": "uint256",
          "name": "tokenId",
          "type": "uint256"
        }
      ],
      "name": "safeTransferFrom",
      "outputs": [],
      "stateMutability": "nonpayable",
      "type": "function"
    },
    {
      "inputs": [
        {
          "internalType": "address",
          "name": "from",
          "type": "address"
        },
        {
          "internalType": "address",
          "name": "to",
          "type": "address"
        },
        {
          "internalType": "uint256",
          "name": "tokenId",
          "type": "uint256"
        },
        {
          "internalType": "bytes",
          "name": "_data",
          "type": "bytes"
        }
      ],
      "name": "safeTransferFrom",
      "outputs": [],
      "stateMutability": "nonpayable",
      "type": "function"
    },
    {
      "inputs": [
        {
          "internalType": "address",
          "name": "operator",
          "type": "address"
        },
        {
          "internalType": "bool",
          "name": "approved",
          "type": "bool"
        }
      ],
      "name": "setApprovalForAll",
      "outputs": [],
      "stateMutability": "nonpayable",
      "type": "function"
    },
    {
      "inputs": [
        {
          "internalType": "bytes4",
          "name": "interfaceId",
          "type": "bytes4"
        }
      ],
      "name": "supportsInterface",
      "outputs": [
        {
          "internalType": "bool",
          "name": "",
          "type": "bool"
        }
      ],
      "stateMutability": "view",
      "type": "function"
    },
    {
      "inputs": [],
      "name": "symbol",
      "outputs": [
        {
          "internalType": "string",
          "name": "",
          "type": "string"
        }
      ],
      "stateMutability": "view",
      "type": "function"
    },
    {
      "inputs": [
        {
          "internalType": "uint256",
          "name": "tokenId",
          "type": "uint256"
        }
      ],
      "name": "tokenURI",
      "outputs": [
        {
          "internalType": "string",
          "name": "",
          "type": "string"
        }
      ],
      "stateMutability": "view",
      "type": "function"
    },
    {
      "inputs": [
        {
          "internalType": "address",
          "name": "from",
          "type": "address"
        },
        {
          "internalType": "address",
          "name": "to",
          "type": "address"
        },
        {
          "internalType": "uint256",
          "name": "tokenId",
          "type": "uint256"
        }
      ],
      "name": "transferFrom",
      "outputs": [],
      "stateMutability": "nonpayable",
      "type": "function"
    }
  ],
  "bytecode": "0x608060405260405180610160016040528061012f8152602001620045f261012f913960089080519060200190620000389291906200067e565b506040518060c001604052806040518060400160405280600481526020017f5365616c0000000000000000000000000000000000000000000000000000000081525081526020016040518060400160405280600781526020017f50616e746865720000000000000000000000000000000000000000000000000081525081526020016040518060400160405280600681526020017f4a61636b616c000000000000000000000000000000000000000000000000000081525081526020016040518060400160405280600881526020017f456c657068616e7400000000000000000000000000000000000000000000000081525081526020016040518060400160405280600581526020017f546967657200000000000000000000000000000000000000000000000000000081525081526020016040518060400160405280600381526020017f476e7500000000000000000000000000000000000000000000000000000000008152508152506009906006620001b69291906200070f565b506040518060c001604052806040518060400160405280600a81526020017f537472617762657272790000000000000000000000000000000000000000000081525081526020016040518060400160405280600781526020017f41766f6361646f0000000000000000000000000000000000000000000000000081525081526020016040518060400160405280600681526020017f4f72616e6765000000000000000000000000000000000000000000000000000081525081526020016040518060400160405280600481526020017f4b6977690000000000000000000000000000000000000000000000000000000081525081526020016040518060400160405280600781526020017f436f636f6e75740000000000000000000000000000000000000000000000000081525081526020016040518060400160405280600a81526020017f4772617065667275697400000000000000000000000000000000000000000000815250815250600a906006620003349291906200070f565b506040518060c001604052806040518060400160405280600481526020017f526f73650000000000000000000000000000000000000000000000000000000081525081526020016040518060400160405280600981526020017f53756e666c6f776572000000000000000000000000000000000000000000000081525081526020016040518060400160405280600581526020017f54756c697000000000000000000000000000000000000000000000000000000081525081526020016040518060400160405280600781526020017f4a61736d696e650000000000000000000000000000000000000000000000000081525081526020016040518060400160405280600581526020017f4c6f74757300000000000000000000000000000000000000000000000000000081525081526020016040518060400160405280600681526020017f417a616c65610000000000000000000000000000000000000000000000000000815250815250600b906006620004b29291906200070f565b50348015620004c057600080fd5b506040518060400160405280600981526020017f5371756172654e465400000000000000000000000000000000000000000000008152506040518060400160405280600681526020017f53515541524500000000000000000000000000000000000000000000000000008152508160009080519060200190620005459291906200067e565b5080600190805190602001906200055e9291906200067e565b505050620005ac6040518060400160405280601881526020017f54686973206973206d79204e465420636f6e74726163742e0000000000000000815250620005b260201b620012421760201c565b62000930565b6200065281604051602401620005c9919062000844565b6040516020818303038152906040527f41304fac000000000000000000000000000000000000000000000000000000007bffffffffffffffffffffffffffffffffffffffffffffffffffffffff19166020820180517bffffffffffffffffffffffffffffffffffffffffffffffffffffffff83818316178352505050506200065560201b60201c565b50565b60008151905060006a636f6e736f6c652e6c6f679050602083016000808483855afa5050505050565b8280546200068c90620008ba565b90600052602060002090601f016020900481019282620006b05760008555620006fc565b82601f10620006cb57805160ff1916838001178555620006fc565b82800160010185558215620006fc579182015b82811115620006fb578251825591602001919060010190620006de565b5b5090506200070b919062000776565b5090565b82805482825590600052602060002090810192821562000763579160200282015b8281111562000762578251829080519060200190620007519291906200067e565b509160200191906001019062000730565b5b50905062000772919062000795565b5090565b5b808211156200079157600081600090555060010162000777565b5090565b5b80821115620007b95760008181620007af9190620007bd565b5060010162000796565b5090565b508054620007cb90620008ba565b6000825580601f10620007df575062000800565b601f016020900490600052602060002090810190620007ff919062000776565b5b50565b6000620008108262000868565b6200081c818562000873565b93506200082e81856020860162000884565b62000839816200091f565b840191505092915050565b6000602082019050818103600083015262000860818462000803565b905092915050565b600081519050919050565b600082825260208201905092915050565b60005b83811015620008a457808201518184015260208101905062000887565b83811115620008b4576000848401525b50505050565b60006002820490506001821680620008d357607f821691505b60208210811415620008ea57620008e9620008f0565b5b50919050565b7f4e487b7100000000000000000000000000000000000000000000000000000000600052602260045260246000fd5b6000601f19601f8301169050919050565b613cb280620009406000396000f3fe608060405234801561001057600080fd5b50600436106101165760003560e01c806370a08231116100a2578063b88d4fde11610071578063b88d4fde14610305578063c575757a14610321578063c87b56dd14610351578063de9d132f14610381578063e985e9c51461038b57610116565b806370a082311461026b57806395d89b411461029b578063a22cb465146102b9578063b187301f146102d557610116565b806323b872dd116100e957806323b872dd146101b55780632de38d68146101d157806339590adc1461020157806342842e0e1461021f5780636352211e1461023b57610116565b806301ffc9a71461011b57806306fdde031461014b578063081812fc14610169578063095ea7b314610199575b600080fd5b6101356004803603810190610130919061270a565b6103bb565b6040516101429190612e51565b60405180910390f35b61015361049d565b6040516101609190612e6c565b60405180910390f35b610183600480360381019061017e919061275c565b61052f565b6040516101909190612dc1565b60405180910390f35b6101b360048036038101906101ae91906126ce565b6105b4565b005b6101cf60048036038101906101ca91906125c8565b6106cc565b005b6101eb60048036038101906101e6919061275c565b61072c565b6040516101f89190612e6c565b60405180910390f35b6102096108c8565b604051610216919061311c565b60405180910390f35b610239600480360381019061023491906125c8565b6108d9565b005b6102556004803603810190610250919061275c565b6108f9565b6040516102629190612dc1565b60405180910390f35b61028560048036038101906102809190612563565b6109ab565b604051610292919061311c565b60405180910390f35b6102a3610a63565b6040516102b09190612e6c565b60405180910390f35b6102d360048036038101906102ce9190612692565b610af5565b005b6102ef60048036038101906102ea919061275c565b610b0b565b6040516102fc9190612e6c565b60405180910390f35b61031f600480360381019061031a9190612617565b610c29565b005b61033b6004803603810190610336919061275c565b610c8b565b6040516103489190612e6c565b60405180910390f35b61036b6004803603810190610366919061275c565b610da9565b6040516103789190612e6c565b60405180910390f35b610389610efb565b005b6103a560048036038101906103a0919061258c565b6111ae565b6040516103b29190612e51565b60405180910390f35b60007f80ac58cd000000000000000000000000000000000000000000000000000000007bffffffffffffffffffffffffffffffffffffffffffffffffffffffff1916827bffffffffffffffffffffffffffffffffffffffffffffffffffffffff1916148061048657507f5b5e139f000000000000000000000000000000000000000000000000000000007bffffffffffffffffffffffffffffffffffffffffffffffffffffffff1916827bffffffffffffffffffffffffffffffffffffffffffffffffffffffff1916145b806104965750610495826112db565b5b9050919050565b6060600080546104ac906133b0565b80601f01602080910402602001604051908101604052809291908181526020018280546104d8906133b0565b80156105255780601f106104fa57610100808354040283529160200191610525565b820191906000526020600020905b81548152906001019060200180831161050857829003601f168201915b5050505050905090565b600061053a82611345565b610579576040517f08c379a00000000000000000000000000000000000000000000000000000000081526004016105709061309c565b60405180910390fd5b6004600083815260200190815260200160002060009054906101000a900473ffffffffffffffffffffffffffffffffffffffff169050919050565b60006105bf826108f9565b90508073ffffffffffffffffffffffffffffffffffffffff168373ffffffffffffffffffffffffffffffffffffffff161415610630576040517f08c379a0000000000000000000000000000000000000000000000000000000008152600401610627906130dc565b60405180910390fd5b8073ffffffffffffffffffffffffffffffffffffffff1661064f6113b1565b73ffffffffffffffffffffffffffffffffffffffff16148061067e575061067d816106786113b1565b6111ae565b5b6106bd576040517f08c379a00000000000000000000000000000000000000000000000000000000081526004016106b490612fdc565b60405180910390fd5b6106c783836113b9565b505050565b6106dd6106d76113b1565b82611472565b61071c576040517f08c379a0000000000000000000000000000000000000000000000000000000008152600401610713906130fc565b60405180910390fd5b610727838383611550565b505050565b6060600061076061073c846117b7565b60405160200161074c9190612d7d565b604051602081830303815290604052611964565b90506107a16040518060400160405280600d81526020017f72616e64202d20736565643a200000000000000000000000000000000000000081525082611997565b600980549050816107b2919061345c565b90506107f36040518060400160405280601381526020017f72616e64202d20666972737420776f72643a200000000000000000000000000081525082611997565b6009818154811061082d577f4e487b7100000000000000000000000000000000000000000000000000000000600052603260045260246000fd5b906000526020600020018054610842906133b0565b80601f016020809104026020016040519081016040528092919081815260200182805461086e906133b0565b80156108bb5780601f10610890576101008083540402835291602001916108bb565b820191906000526020600020905b81548152906001019060200180831161089e57829003601f168201915b5050505050915050919050565b60006108d46007611a33565b905090565b6108f483838360405180602001604052806000815250610c29565b505050565b6000806002600084815260200190815260200160002060009054906101000a900473ffffffffffffffffffffffffffffffffffffffff169050600073ffffffffffffffffffffffffffffffffffffffff168173ffffffffffffffffffffffffffffffffffffffff1614156109a2576040517f08c379a00000000000000000000000000000000000000000000000000000000081526004016109999061301c565b60405180910390fd5b80915050919050565b60008073ffffffffffffffffffffffffffffffffffffffff168273ffffffffffffffffffffffffffffffffffffffff161415610a1c576040517f08c379a0000000000000000000000000000000000000000000000000000000008152600401610a1390612ffc565b60405180910390fd5b600360008373ffffffffffffffffffffffffffffffffffffffff1673ffffffffffffffffffffffffffffffffffffffff168152602001908152602001600020549050919050565b606060018054610a72906133b0565b80601f0160208091040260200160405190810160405280929190818152602001828054610a9e906133b0565b8015610aeb5780601f10610ac057610100808354040283529160200191610aeb565b820191906000526020600020905b815481529060010190602001808311610ace57829003601f168201915b5050505050905090565b610b07610b006113b1565b8383611a41565b5050565b60606000610b3f610b1b846117b7565b604051602001610b2b9190612d16565b604051602081830303815290604052611964565b9050600a8054905081610b52919061345c565b9050600a8181548110610b8e577f4e487b7100000000000000000000000000000000000000000000000000000000600052603260045260246000fd5b906000526020600020018054610ba3906133b0565b80601f0160208091040260200160405190810160405280929190818152602001828054610bcf906133b0565b8015610c1c5780601f10610bf157610100808354040283529160200191610c1c565b820191906000526020600020905b815481529060010190602001808311610bff57829003601f168201915b5050505050915050919050565b610c3a610c346113b1565b83611472565b610c79576040517f08c379a0000000000000000000000000000000000000000000000000000000008152600401610c70906130fc565b60405180910390fd5b610c8584848484611bae565b50505050565b60606000610cbf610c9b846117b7565b604051602001610cab9190612cf4565b604051602081830303815290604052611964565b9050600b8054905081610cd2919061345c565b9050600b8181548110610d0e577f4e487b7100000000000000000000000000000000000000000000000000000000600052603260045260246000fd5b906000526020600020018054610d23906133b0565b80601f0160208091040260200160405190810160405280929190818152602001828054610d4f906133b0565b8015610d9c5780601f10610d7157610100808354040283529160200191610d9c565b820191906000526020600020905b815481529060010190602001808311610d7f57829003601f168201915b5050505050915050919050565b6060610db482611345565b610df3576040517f08c379a0000000000000000000000000000000000000000000000000000000008152600401610dea9061307c565b60405180910390fd5b6000600660008481526020019081526020016000208054610e13906133b0565b80601f0160208091040260200160405190810160405280929190818152602001828054610e3f906133b0565b8015610e8c5780601f10610e6157610100808354040283529160200191610e8c565b820191906000526020600020905b815481529060010190602001808311610e6f57829003601f168201915b505050505090506000610e9d611c0a565b9050600081511415610eb3578192505050610ef6565b600082511115610ee8578082604051602001610ed0929190612c56565b60405160208183030381529060405292505050610ef6565b610ef184611c21565b925050505b919050565b6000610f076007611a33565b9050600a8110610f4c576040517f08c379a0000000000000000000000000000000000000000000000000000000008152600401610f4390612fbc565b60405180910390fd5b6000610f578261072c565b90506000610f6483610b0b565b90506000610f7184610c8b565b90506000838383604051602001610f8a93929190612c7a565b604051602081830303815290604052905060006008858585604051602001610fb59493929190612cab565b60405160208183030381529060405290506110046040518060400160405280601581526020017f0a2d2d2d2d2d205356472064617461202d2d2d2d2d0000000000000000000000815250611242565b61100d81611242565b61104b6040518060400160405280601581526020017f2d2d2d2d2d2d2d2d2d2d2d2d2d2d2d2d2d2d2d2d0a0000000000000000000000815250611242565b600061107f8361105a84611cc8565b60405160200161106b929190612d38565b604051602081830303815290604052611cc8565b90506000816040516020016110949190612d9f565b60405160208183030381529060405290506110e36040518060400160405280601581526020017f0a2d2d2d2d2d20546f6b656e20555249202d2d2d2d0000000000000000000000815250611242565b6110ec81611242565b61112a6040518060400160405280601581526020017f2d2d2d2d2d2d2d2d2d2d2d2d2d2d2d2d2d2d2d2d0a0000000000000000000000815250611242565b6111343389611e86565b61113e8882611ea4565b611161604051806060016040528060258152602001613c18602591398933611f18565b61116b6007611fb7565b7febb98688741ffa4c7589bf325de30cf7becb63de567842e1ccdb6cb949fdc82c338960405161119c929190612e28565b60405180910390a15050505050505050565b6000600560008473ffffffffffffffffffffffffffffffffffffffff1673ffffffffffffffffffffffffffffffffffffffff16815260200190815260200160002060008373ffffffffffffffffffffffffffffffffffffffff1673ffffffffffffffffffffffffffffffffffffffff16815260200190815260200160002060009054906101000a900460ff16905092915050565b6112d8816040516024016112569190612e6c565b6040516020818303038152906040527f41304fac000000000000000000000000000000000000000000000000000000007bffffffffffffffffffffffffffffffffffffffffffffffffffffffff19166020820180517bffffffffffffffffffffffffffffffffffffffffffffffffffffffff8381831617835250505050611fcd565b50565b60007f01ffc9a7000000000000000000000000000000000000000000000000000000007bffffffffffffffffffffffffffffffffffffffffffffffffffffffff1916827bffffffffffffffffffffffffffffffffffffffffffffffffffffffff1916149050919050565b60008073ffffffffffffffffffffffffffffffffffffffff166002600084815260200190815260200160002060009054906101000a900473ffffffffffffffffffffffffffffffffffffffff1673ffffffffffffffffffffffffffffffffffffffff1614159050919050565b600033905090565b816004600083815260200190815260200160002060006101000a81548173ffffffffffffffffffffffffffffffffffffffff021916908373ffffffffffffffffffffffffffffffffffffffff160217905550808273ffffffffffffffffffffffffffffffffffffffff1661142c836108f9565b73ffffffffffffffffffffffffffffffffffffffff167f8c5be1e5ebec7d5bd14f71427d1e84f3dd0314c0f7b2291e5b200ac8c7c3b92560405160405180910390a45050565b600061147d82611345565b6114bc576040517f08c379a00000000000000000000000000000000000000000000000000000000081526004016114b390612f9c565b60405180910390fd5b60006114c7836108f9565b90508073ffffffffffffffffffffffffffffffffffffffff168473ffffffffffffffffffffffffffffffffffffffff16148061153657508373ffffffffffffffffffffffffffffffffffffffff1661151e8461052f565b73ffffffffffffffffffffffffffffffffffffffff16145b80611547575061154681856111ae565b5b91505092915050565b8273ffffffffffffffffffffffffffffffffffffffff16611570826108f9565b73ffffffffffffffffffffffffffffffffffffffff16146115c6576040517f08c379a00000000000000000000000000000000000000000000000000000000081526004016115bd90612f1c565b60405180910390fd5b600073ffffffffffffffffffffffffffffffffffffffff168273ffffffffffffffffffffffffffffffffffffffff161415611636576040517f08c379a000000000000000000000000000000000000000000000000000000000815260040161162d90612f5c565b60405180910390fd5b611641838383611ff6565b61164c6000826113b9565b6001600360008573ffffffffffffffffffffffffffffffffffffffff1673ffffffffffffffffffffffffffffffffffffffff168152602001908152602001600020600082825461169c91906132c6565b925050819055506001600360008473ffffffffffffffffffffffffffffffffffffffff1673ffffffffffffffffffffffffffffffffffffffff16815260200190815260200160002060008282546116f391906131e5565b92505081905550816002600083815260200190815260200160002060006101000a81548173ffffffffffffffffffffffffffffffffffffffff021916908373ffffffffffffffffffffffffffffffffffffffff160217905550808273ffffffffffffffffffffffffffffffffffffffff168473ffffffffffffffffffffffffffffffffffffffff167fddf252ad1be2c89b69c2b068fc378daa952ba7f163c4a11628f55a4df523b3ef60405160405180910390a46117b2838383611ffb565b505050565b606060008214156117ff576040518060400160405280600181526020017f3000000000000000000000000000000000000000000000000000000000000000815250905061195f565b600082905060005b6000821461183157808061181a90613413565b915050600a8261182a919061323b565b9150611807565b60008167ffffffffffffffff811115611873577f4e487b7100000000000000000000000000000000000000000000000000000000600052604160045260246000fd5b6040519080825280601f01601f1916602001820160405280156118a55781602001600182028036833780820191505090505b5090505b60008514611958576001826118be91906132c6565b9150600a856118cd919061345c565b60306118d991906131e5565b60f81b818381518110611915577f4e487b7100000000000000000000000000000000000000000000000000000000600052603260045260246000fd5b60200101907effffffffffffffffffffffffffffffffffffffffffffffffffffffffffffff1916908160001a905350600a85611951919061323b565b94506118a9565b8093505050505b919050565b6000816040516020016119779190612c3f565b6040516020818303038152906040528051906020012060001c9050919050565b611a2f82826040516024016119ad929190612e8e565b6040516020818303038152906040527f9710a9d0000000000000000000000000000000000000000000000000000000007bffffffffffffffffffffffffffffffffffffffffffffffffffffffff19166020820180517bffffffffffffffffffffffffffffffffffffffffffffffffffffffff8381831617835250505050611fcd565b5050565b600081600001549050919050565b8173ffffffffffffffffffffffffffffffffffffffff168373ffffffffffffffffffffffffffffffffffffffff161415611ab0576040517f08c379a0000000000000000000000000000000000000000000000000000000008152600401611aa790612f7c565b60405180910390fd5b80600560008573ffffffffffffffffffffffffffffffffffffffff1673ffffffffffffffffffffffffffffffffffffffff16815260200190815260200160002060008473ffffffffffffffffffffffffffffffffffffffff1673ffffffffffffffffffffffffffffffffffffffff16815260200190815260200160002060006101000a81548160ff0219169083151502179055508173ffffffffffffffffffffffffffffffffffffffff168373ffffffffffffffffffffffffffffffffffffffff167f17307eab39ab6107e8899845ad3d59bd9653f200f220920489ca2b5937696c3183604051611ba19190612e51565b60405180910390a3505050565b611bb9848484611550565b611bc584848484612000565b611c04576040517f08c379a0000000000000000000000000000000000000000000000000000000008152600401611bfb90612efc565b60405180910390fd5b50505050565b606060405180602001604052806000815250905090565b6060611c2c82611345565b611c6b576040517f08c379a0000000000000000000000000000000000000000000000000000000008152600401611c62906130bc565b60405180910390fd5b6000611c75611c0a565b90506000815111611c955760405180602001604052806000815250611cc0565b80611c9f846117b7565b604051602001611cb0929190612c56565b6040516020818303038152906040525b915050919050565b60606000825190506000811415611cf15760405180602001604052806000815250915050611e81565b60006003600283611d0291906131e5565b611d0c919061323b565b6004611d18919061326c565b90506000602082611d2991906131e5565b67ffffffffffffffff811115611d68577f4e487b7100000000000000000000000000000000000000000000000000000000600052604160045260246000fd5b6040519080825280601f01601f191660200182016040528015611d9a5781602001600182028036833780820191505090505b5090506000604051806060016040528060408152602001613c3d604091399050600181016020830160005b86811015611e3e5760038101905062ffffff818a015116603f8160121c168401518060081b905060ff603f83600c1c1686015116810190508060081b905060ff603f8360061c1686015116810190508060081b905060ff603f831686015116810190508060e01b90508084526004840193505050611dc5565b506003860660018114611e585760028114611e6857611e73565b613d3d60f01b6002830352611e73565b603d60f81b60018303525b508484525050819450505050505b919050565b611ea0828260405180602001604052806000815250612197565b5050565b611ead82611345565b611eec576040517f08c379a0000000000000000000000000000000000000000000000000000000008152600401611ee39061303c565b60405180910390fd5b80600660008481526020019081526020016000209080519060200190611f139291906123ef565b505050565b611fb2838383604051602401611f3093929190612ebe565b6040516020818303038152906040527fe3849f79000000000000000000000000000000000000000000000000000000007bffffffffffffffffffffffffffffffffffffffffffffffffffffffff19166020820180517bffffffffffffffffffffffffffffffffffffffffffffffffffffffff8381831617835250505050611fcd565b505050565b6001816000016000828254019250508190555050565b60008151905060006a636f6e736f6c652e6c6f679050602083016000808483855afa5050505050565b505050565b505050565b60006120218473ffffffffffffffffffffffffffffffffffffffff166121f2565b1561218a578373ffffffffffffffffffffffffffffffffffffffff1663150b7a0261204a6113b1565b8786866040518563ffffffff1660e01b815260040161206c9493929190612ddc565b602060405180830381600087803b15801561208657600080fd5b505af19250505080156120b757506040513d601f19601f820116820180604052508101906120b49190612733565b60015b61213a573d80600081146120e7576040519150601f19603f3d011682016040523d82523d6000602084013e6120ec565b606091505b50600081511415612132576040517f08c379a000000000000000000000000000000000000000000000000000000000815260040161212990612efc565b60405180910390fd5b805181602001fd5b63150b7a0260e01b7bffffffffffffffffffffffffffffffffffffffffffffffffffffffff1916817bffffffffffffffffffffffffffffffffffffffffffffffffffffffff19161491505061218f565b600190505b949350505050565b6121a18383612215565b6121ae6000848484612000565b6121ed576040517f08c379a00000000000000000000000000000000000000000000000000000000081526004016121e490612efc565b60405180910390fd5b505050565b6000808273ffffffffffffffffffffffffffffffffffffffff163b119050919050565b600073ffffffffffffffffffffffffffffffffffffffff168273ffffffffffffffffffffffffffffffffffffffff161415612285576040517f08c379a000000000000000000000000000000000000000000000000000000000815260040161227c9061305c565b60405180910390fd5b61228e81611345565b156122ce576040517f08c379a00000000000000000000000000000000000000000000000000000000081526004016122c590612f3c565b60405180910390fd5b6122da60008383611ff6565b6001600360008473ffffffffffffffffffffffffffffffffffffffff1673ffffffffffffffffffffffffffffffffffffffff168152602001908152602001600020600082825461232a91906131e5565b92505081905550816002600083815260200190815260200160002060006101000a81548173ffffffffffffffffffffffffffffffffffffffff021916908373ffffffffffffffffffffffffffffffffffffffff160217905550808273ffffffffffffffffffffffffffffffffffffffff16600073ffffffffffffffffffffffffffffffffffffffff167fddf252ad1be2c89b69c2b068fc378daa952ba7f163c4a11628f55a4df523b3ef60405160405180910390a46123eb60008383611ffb565b5050565b8280546123fb906133b0565b90600052602060002090601f01602090048101928261241d5760008555612464565b82601f1061243657805160ff1916838001178555612464565b82800160010185558215612464579182015b82811115612463578251825591602001919060010190612448565b5b5090506124719190612475565b5090565b5b8082111561248e576000816000905550600101612476565b5090565b60006124a56124a08461315c565b613137565b9050828152602081018484840111156124bd57600080fd5b6124c884828561336e565b509392505050565b6000813590506124df81613bbb565b92915050565b6000813590506124f481613bd2565b92915050565b60008135905061250981613be9565b92915050565b60008151905061251e81613be9565b92915050565b600082601f83011261253557600080fd5b8135612545848260208601612492565b91505092915050565b60008135905061255d81613c00565b92915050565b60006020828403121561257557600080fd5b6000612583848285016124d0565b91505092915050565b6000806040838503121561259f57600080fd5b60006125ad858286016124d0565b92505060206125be858286016124d0565b9150509250929050565b6000806000606084860312156125dd57600080fd5b60006125eb868287016124d0565b93505060206125fc868287016124d0565b925050604061260d8682870161254e565b9150509250925092565b6000806000806080858703121561262d57600080fd5b600061263b878288016124d0565b945050602061264c878288016124d0565b935050604061265d8782880161254e565b925050606085013567ffffffffffffffff81111561267a57600080fd5b61268687828801612524565b91505092959194509250565b600080604083850312156126a557600080fd5b60006126b3858286016124d0565b92505060206126c4858286016124e5565b9150509250929050565b600080604083850312156126e157600080fd5b60006126ef858286016124d0565b92505060206127008582860161254e565b9150509250929050565b60006020828403121561271c57600080fd5b600061272a848285016124fa565b91505092915050565b60006020828403121561274557600080fd5b60006127538482850161250f565b91505092915050565b60006020828403121561276e57600080fd5b600061277c8482850161254e565b91505092915050565b61278e816132fa565b82525050565b61279d8161330c565b82525050565b60006127ae826131a2565b6127b881856131b8565b93506127c881856020860161337d565b6127d181613549565b840191505092915050565b60006127e7826131ad565b6127f181856131c9565b935061280181856020860161337d565b61280a81613549565b840191505092915050565b6000612820826131ad565b61282a81856131da565b935061283a81856020860161337d565b80840191505092915050565b60008154612853816133b0565b61285d81866131da565b945060018216600081146128785760018114612889576128bc565b60ff198316865281860193506128bc565b6128928561318d565b60005b838110156128b457815481890152600182019150602081019050612895565b838801955050505b50505092915050565b60006128d26032836131c9565b91506128dd8261355a565b604082019050919050565b60006128f56025836131c9565b9150612900826135a9565b604082019050919050565b6000612918601c836131c9565b9150612923826135f8565b602082019050919050565b600061293b600a836131da565b915061294682613621565b600a82019050919050565b600061295e6024836131c9565b91506129698261364a565b604082019050919050565b60006129816019836131c9565b915061298c82613699565b602082019050919050565b60006129a46063836131da565b91506129af826136c2565b606382019050919050565b60006129c7600b836131da565b91506129d28261375d565b600b82019050919050565b60006129ea602c836131c9565b91506129f582613786565b604082019050919050565b6000612a0d600d836131da565b9150612a18826137d5565b600d82019050919050565b6000612a30601c836131c9565b9150612a3b826137fe565b602082019050919050565b6000612a536038836131c9565b9150612a5e82613827565b604082019050919050565b6000612a76602a836131c9565b9150612a8182613876565b604082019050919050565b6000612a996029836131c9565b9150612aa4826138c5565b604082019050919050565b6000612abc602e836131c9565b9150612ac782613914565b604082019050919050565b6000612adf6002836131da565b9150612aea82613963565b600282019050919050565b6000612b026020836131c9565b9150612b0d8261398c565b602082019050919050565b6000612b256031836131c9565b9150612b30826139b5565b604082019050919050565b6000612b48602c836131c9565b9150612b5382613a04565b604082019050919050565b6000612b6b602f836131c9565b9150612b7682613a53565b604082019050919050565b6000612b8e600a836131da565b9150612b9982613aa2565b600a82019050919050565b6000612bb16021836131c9565b9150612bbc82613acb565b604082019050919050565b6000612bd4600a836131da565b9150612bdf82613b1a565b600a82019050919050565b6000612bf7601d836131da565b9150612c0282613b43565b601d82019050919050565b6000612c1a6031836131c9565b9150612c2582613b6c565b604082019050919050565b612c3981613364565b82525050565b6000612c4b8284612815565b915081905092915050565b6000612c628285612815565b9150612c6e8284612815565b91508190509392505050565b6000612c868286612815565b9150612c928285612815565b9150612c9e8284612815565b9150819050949350505050565b6000612cb78287612846565b9150612cc38286612815565b9150612ccf8285612815565b9150612cdb8284612815565b9150612ce682612a00565b915081905095945050505050565b6000612cff8261292e565b9150612d0b8284612815565b915081905092915050565b6000612d21826129ba565b9150612d2d8284612815565b915081905092915050565b6000612d4382612b81565b9150612d4f8285612815565b9150612d5a82612997565b9150612d668284612815565b9150612d7182612ad2565b91508190509392505050565b6000612d8882612bc7565b9150612d948284612815565b915081905092915050565b6000612daa82612bea565b9150612db68284612815565b915081905092915050565b6000602082019050612dd66000830184612785565b92915050565b6000608082019050612df16000830187612785565b612dfe6020830186612785565b612e0b6040830185612c30565b8181036060830152612e1d81846127a3565b905095945050505050565b6000604082019050612e3d6000830185612785565b612e4a6020830184612c30565b9392505050565b6000602082019050612e666000830184612794565b92915050565b60006020820190508181036000830152612e8681846127dc565b905092915050565b60006040820190508181036000830152612ea881856127dc565b9050612eb76020830184612c30565b9392505050565b60006060820190508181036000830152612ed881866127dc565b9050612ee76020830185612c30565b612ef46040830184612785565b949350505050565b60006020820190508181036000830152612f15816128c5565b9050919050565b60006020820190508181036000830152612f35816128e8565b9050919050565b60006020820190508181036000830152612f558161290b565b9050919050565b60006020820190508181036000830152612f7581612951565b9050919050565b60006020820190508181036000830152612f9581612974565b9050919050565b60006020820190508181036000830152612fb5816129dd565b9050919050565b60006020820190508181036000830152612fd581612a23565b9050919050565b60006020820190508181036000830152612ff581612a46565b9050919050565b6000602082019050818103600083015261301581612a69565b9050919050565b6000602082019050818103600083015261303581612a8c565b9050919050565b6000602082019050818103600083015261305581612aaf565b9050919050565b6000602082019050818103600083015261307581612af5565b9050919050565b6000602082019050818103600083015261309581612b18565b9050919050565b600060208201905081810360008301526130b581612b3b565b9050919050565b600060208201905081810360008301526130d581612b5e565b9050919050565b600060208201905081810360008301526130f581612ba4565b9050919050565b6000602082019050818103600083015261311581612c0d565b9050919050565b60006020820190506131316000830184612c30565b92915050565b6000613141613152565b905061314d82826133e2565b919050565b6000604051905090565b600067ffffffffffffffff8211156131775761317661351a565b5b61318082613549565b9050602081019050919050565b60008190508160005260206000209050919050565b600081519050919050565b600081519050919050565b600082825260208201905092915050565b600082825260208201905092915050565b600081905092915050565b60006131f082613364565b91506131fb83613364565b9250827fffffffffffffffffffffffffffffffffffffffffffffffffffffffffffffffff038211156132305761322f61348d565b5b828201905092915050565b600061324682613364565b915061325183613364565b925082613261576132606134bc565b5b828204905092915050565b600061327782613364565b915061328283613364565b9250817fffffffffffffffffffffffffffffffffffffffffffffffffffffffffffffffff04831182151516156132bb576132ba61348d565b5b828202905092915050565b60006132d182613364565b91506132dc83613364565b9250828210156132ef576132ee61348d565b5b828203905092915050565b600061330582613344565b9050919050565b60008115159050919050565b60007fffffffff0000000000000000000000000000000000000000000000000000000082169050919050565b600073ffffffffffffffffffffffffffffffffffffffff82169050919050565b6000819050919050565b82818337600083830152505050565b60005b8381101561339b578082015181840152602081019050613380565b838111156133aa576000848401525b50505050565b600060028204905060018216806133c857607f821691505b602082108114156133dc576133db6134eb565b5b50919050565b6133eb82613549565b810181811067ffffffffffffffff8211171561340a5761340961351a565b5b80604052505050565b600061341e82613364565b91507fffffffffffffffffffffffffffffffffffffffffffffffffffffffffffffffff8214156134515761345061348d565b5b600182019050919050565b600061346782613364565b915061347283613364565b925082613482576134816134bc565b5b828206905092915050565b7f4e487b7100000000000000000000000000000000000000000000000000000000600052601160045260246000fd5b7f4e487b7100000000000000000000000000000000000000000000000000000000600052601260045260246000fd5b7f4e487b7100000000000000000000000000000000000000000000000000000000600052602260045260246000fd5b7f4e487b7100000000000000000000000000000000000000000000000000000000600052604160045260246000fd5b6000601f19601f8301169050919050565b7f4552433732313a207472616e7366657220746f206e6f6e20455243373231526560008201527f63656976657220696d706c656d656e7465720000000000000000000000000000602082015250565b7f4552433732313a207472616e736665722066726f6d20696e636f72726563742060008201527f6f776e6572000000000000000000000000000000000000000000000000000000602082015250565b7f4552433732313a20746f6b656e20616c7265616479206d696e74656400000000600082015250565b7f54484952445f574f524400000000000000000000000000000000000000000000600082015250565b7f4552433732313a207472616e7366657220746f20746865207a65726f2061646460008201527f7265737300000000000000000000000000000000000000000000000000000000602082015250565b7f4552433732313a20617070726f766520746f2063616c6c657200000000000000600082015250565b7f222c20226465736372697074696f6e223a20224120686967686c79206163636c60008201527f61696d656420636f6c6c656374696f6e206f6620737175617265732e222c202260208201527f696d616765223a2022646174613a696d6167652f7376672b786d6c3b6261736560408201527f36342c0000000000000000000000000000000000000000000000000000000000606082015250565b7f5345434f4e445f574f5244000000000000000000000000000000000000000000600082015250565b7f4552433732313a206f70657261746f7220717565727920666f72206e6f6e657860008201527f697374656e7420746f6b656e0000000000000000000000000000000000000000602082015250565b7f3c2f746578743e3c2f7376673e00000000000000000000000000000000000000600082015250565b7f596f752063616e206d696e7420757020746f203130206974656d732e00000000600082015250565b7f4552433732313a20617070726f76652063616c6c6572206973206e6f74206f7760008201527f6e6572206e6f7220617070726f76656420666f7220616c6c0000000000000000602082015250565b7f4552433732313a2062616c616e636520717565727920666f7220746865207a6560008201527f726f206164647265737300000000000000000000000000000000000000000000602082015250565b7f4552433732313a206f776e657220717565727920666f72206e6f6e657869737460008201527f656e7420746f6b656e0000000000000000000000000000000000000000000000602082015250565b7f45524337323155524953746f726167653a2055524920736574206f66206e6f6e60008201527f6578697374656e7420746f6b656e000000000000000000000000000000000000602082015250565b7f227d000000000000000000000000000000000000000000000000000000000000600082015250565b7f4552433732313a206d696e7420746f20746865207a65726f2061646472657373600082015250565b7f45524337323155524953746f726167653a2055524920717565727920666f722060008201527f6e6f6e6578697374656e7420746f6b656e000000000000000000000000000000602082015250565b7f4552433732313a20617070726f76656420717565727920666f72206e6f6e657860008201527f697374656e7420746f6b656e0000000000000000000000000000000000000000602082015250565b7f4552433732314d657461646174613a2055524920717565727920666f72206e6f60008201527f6e6578697374656e7420746f6b656e0000000000000000000000000000000000602082015250565b7f7b226e616d65223a202200000000000000000000000000000000000000000000600082015250565b7f4552433732313a20617070726f76616c20746f2063757272656e74206f776e6560008201527f7200000000000000000000000000000000000000000000000000000000000000602082015250565b7f46495253545f574f524400000000000000000000000000000000000000000000600082015250565b7f646174613a6170706c69636174696f6e2f6a736f6e3b6261736536342c000000600082015250565b7f4552433732313a207472616e736665722063616c6c6572206973206e6f74206f60008201527f776e6572206e6f7220617070726f766564000000000000000000000000000000602082015250565b613bc4816132fa565b8114613bcf57600080fd5b50565b613bdb8161330c565b8114613be657600080fd5b50565b613bf281613318565b8114613bfd57600080fd5b50565b613c0981613364565b8114613c1457600080fd5b5056fe416e204e465420772f20494420257320686173206265656e206d696e74656420746f2025734142434445464748494a4b4c4d4e4f505152535455565758595a6162636465666768696a6b6c6d6e6f707172737475767778797a303132333435363738392b2fa26469706673582212204bb84e87e4e8db4613d12483fd57643c90dd83c0349e6711d8a0da47505f72fa64736f6c634300080400333c73766720786d6c6e733d27687474703a2f2f7777772e77332e6f72672f323030302f73766727207072657365727665417370656374526174696f3d27784d696e594d696e206d656574272076696577426f783d273020302033353020333530273e3c7374796c653e2e62617365207b2066696c6c3a2077686974653b20666f6e742d66616d696c793a2073657269663b20666f6e742d73697a653a20323470783b207d3c2f7374796c653e3c726563742077696474683d273130302527206865696768743d2731303025272066696c6c3d27626c61636b27202f3e3c7465787420783d273530252720793d273530252720636c6173733d27626173652720646f6d696e616e742d626173656c696e653d276d6964646c652720746578742d616e63686f723d276d6964646c65273e",
  "linkReferences": {},
  "deployedLinkReferences": {}
}